:100000000C9462000C942E040C9407040C948A0047
:100010000C948A000C948A000C948A000C948A0038
:100020000C948A000C948A000C948A000C948A0028
:100030000C948A000C948A000C948A000C948A0018
:100040000C94BD030C948A000C948A000C948A00D2
:100050000C948A000C948A000C948A000C948A00F8
:100060000C948A000C948A000000000024002700F1
:100070002A0000000000250028002B0000000000DE
:1000800023002600290004040404040404040202DA
:100090000202020203030303030301020408102007
:1000A0004080010204081020010204081020000012
:1000B0000008000201000003040700000000000027
:1000C0000000D30511241FBECFEFD8E0DEBFCDBFA7
:1000D00011E0A0E0B1E0EAECFFE002C005900D9273
:1000E000A834B107D9F721E0A8E4B1E001C01D921E
:1000F000A337B207E1F710E0C2E6D0E004C02197D1
:10010000FE010E94DD07C136D107C9F70E945504E0
:100110000C94E3070C940000833081F028F48130C4
:1001200099F08230A9F008958730A9F08830C9F09D
:100130008430B1F4809180008F7D03C08091800075
:100140008F7780938000089584B58F7784BD08955C
:1001500084B58F7DFBCF8091B0008F778093B00006
:1001600008958091B0008F7DF9CFCF93DF93282F32
:1001700030E0F901E255FF4F8491F901E656FF4F57
:10018000D491F901EA57FF4FC491CC23A1F081111A
:100190000E948C00EC2FF0E0EE0FFF1FE458FF4FA1
:1001A000A591B491EC91ED2381E090E009F480E019
:1001B000DF91CF91089580E090E0FACF1F93CF9325
:1001C000DF93282F30E0F901E255FF4F8491F901C8
:1001D000E656FF4FD491F901EA57FF4FC491CC2363
:1001E000A9F0162F81110E948C00EC2FF0E0EE0F89
:1001F000FF1FEE58FF4FA591B4918FB7F894EC9183
:10020000111108C0D095DE23DC938FBFDF91CF9111
:100210001F910895DE2BF8CFCF93DF9390E0FC0180
:10022000E656FF4F24918A579F4FFC018491882303
:10023000D1F090E0880F991FFC01E859FF4FA5917C
:10024000B491FC01EE58FF4FC591D491623071F426
:100250009FB7F8943C91822F809583238C93E881FB
:100260002E2B28839FBFDF91CF9108958FB7F894ED
:10027000EC912E2B2C938FBFF6CF3FB7F894809143
:10028000570190915801A0915901B0915A0126B59A
:10029000A89B05C02F3F19F00196A11DB11D3FBFBE
:1002A000BA2FA92F982F8827BC01CD01620F711D8D
:1002B000811D911D42E0660F771F881F991F4A9587
:1002C000D1F708958F929F92AF92BF92CF92DF9213
:1002D000EF92FF924B015C010E943D016B017C019A
:1002E0000E943D016C197D098E099F09683E73408B
:1002F00081059105A8F321E0821A9108A108B108AF
:1003000088EEC80E83E0D81EE11CF11C8114910414
:10031000A104B10429F7FF90EF90DF90CF90BF9038
:10032000AF909F908F9008950895AF92BF92CF9213
:10033000DF92EF92FF920F931F93CF93DF936C01A5
:100340007B018B01040F151FEB015E01AE18BF0886
:10035000C017D10759F06991D601ED91FC91019038
:10036000F081E02DC6010995892B79F7C501DF9150
:10037000CF911F910F91FF90EF90DF90CF90BF90A2
:10038000AF900895089590E080E00895CF92DF92B5
:10039000EF92FF92CF93DF938FB7F894C090530101
:1003A000D0905401E0905501F09056018FBF80919C
:1003B000480190914901A0914A01B0914B01A701D8
:1003C0009601281B390B4A0B5B0BDA01C901039715
:1003D000A105B105D8F083E00E94B500EC0182E0F0
:1003E0000E94B500C817D907C1F0809150019091C3
:1003F000510101969093510180935001C0924801A0
:10040000D0924901E0924A01F0924B01DF91CF91E5
:10041000FF90EF90DF90CF900895809150019091E0
:1004200051010197E7CFFC0101900020E9F73197D6
:10043000AF01481B590BBC018BE591E00C94950171
:100440008F929F92AF92BF920F931F93CF93DF93A0
:10045000CDB7DEB7A1970FB6F894DEBF0FBECDBF04
:1004600019A2423008F44AE08E010F5D1F4F842E1E
:10047000912CB12CA12CA50194010E94BB07E62F61
:10048000B901CA01EA30F4F4E05DD801EE938D01C0
:10049000232B242B252B79F790E080E0109719F07F
:1004A000CD010E941302A1960FB6F894DEBF0FBED5
:1004B000CDBFDF91CF911F910F91BF90AF909F90D3
:1004C0008F900895E95CE1CFCF93DF93EC0160E07A
:1004D0008E810E94DE0061E08E810E94DE0060E07D
:1004E0008E810E94DE008BE891E00197F1F7DF91A9
:1004F000CF910895CF92DF92EF92FF920F931F93C7
:10050000CF93DF936C017C0187E0E80EF11CD0E013
:10051000C0E0062F10E0B8010C2E02C0759567955B
:100520000A94E2F76170F70181917F010E94DE0079
:100530002196C430D10579F7C601DF91CF911F9183
:100540000F91FF90EF90DF90CF900C946402CF92C8
:10055000DF92EF92FF920F931F93CF93DF93EC0103
:10056000F62E642F8C810E94DE008D818F3F19F062
:1005700060E00E94DE000F2D10E08F8584FF25C013
:100580006E0187E0C80ED11CF12CE12CB8010E2CB5
:1005900002C0759567950A94E2F76170F601819142
:1005A0006F010E94DE00FFEFEF1AFF0A88E0E816F5
:1005B000F10461F7CE01DF91CF911F910F91FF9070
:1005C000EF90DF90CF900C946402B80184E07595B1
:1005D00067958A95E1F7CE010E947A026F2DCE01D0
:1005E000DF91CF911F910F91FF90EF90DF90CF900F
:1005F0000C947A0240E0682F8BE591E00C94A702FE
:1006000081E00E94FA028BE39FE10197F1F70895E0
:10061000CF93DF93823029F490916A019860909390
:100620006A0180936E0110926F0180E480937001E3
:1006300080E18093710180E58093720161E0809197
:100640005F010E940C01809160018F3F19F061E011
:100650000E940C0161E0809161010E940C01CBE5D8
:10066000D1E09E012B55314080916A0184FD0BC081
:1006700084E090E021962817390744F461E08E81E8
:100680000E940C01EECF88E090E0F4CF8BE39DE078
:100690000197F1F760E080915F010E94DE0060E069
:1006A000809161010E94DE00809160018F3F19F00E
:1006B00060E00E94DE0080916A0184FD34C063E046
:1006C0008BE591E00E947A02CBE4D6E4CE0101975B
:1006D000F1F763E08BE591E00E947A022197F1F750
:1006E00063E08BE591E00E947A0283E592E0019756
:1006F000F1F762E08BE591E00E947A0280916A0155
:1007000080620E94FA0284E080936B018CE00E9478
:10071000FA020E94000382E080936C0186E0DF9180
:10072000CF910C94FA0280620E94FA028BE496E464
:100730000197F1F780916A0180620E94FA0283E5D5
:1007400092E00197F1F780916A0180620E94FA02BB
:10075000D5CF90916E01891710F08FEF890FE82F98
:10076000F0E0E55AFE4F848980680C94FA0241E07B
:100770000E94A70281E090E008951F920F920FB6A9
:100780000F9211242F933F938F939F93AF93BF9317
:100790008091530190915401A0915501B09156015F
:1007A0003091520123E0230F2D3758F50196A11DFA
:1007B000B11D209352018093530190935401A09353
:1007C0005501B09356018091570190915801A09125
:1007D0005901B0915A010196A11DB11D8093570195
:1007E00090935801A0935901B0935A01BF91AF91D2
:1007F0009F918F913F912F910F900FBE0F901F905F
:10080000189526E8230F0296A11DB11DD2CF1F9285
:100810000F920FB60F9211242F933F934F935F9334
:100820006F937F938F939F93AF93BF93EF93FF93B8
:10083000E0910201F09103010995FF91EF91BF91C1
:10084000AF919F918F917F916F915F914F913F9168
:100850002F910F900FBE0F901F9018951F920F921F
:100860000FB60F9211242F933F934F935F936F9383
:100870007F938F939F93AF93BF93EF93FF93E091F9
:100880000001F09101010995FF91EF91BF91AF91A6
:100890009F918F917F916F915F914F913F912F9198
:1008A0000F900FBE0F901F901895789484B58260BA
:1008B00084BD84B5816084BD85B5826085BD85B504
:1008C000816085BD80916E00816080936E00109282
:1008D00081008091810082608093810080918100FD
:1008E000816080938100809180008160809380008E
:1008F0008091B10084608093B1008091B0008160EC
:100900008093B00080917A00846080937A00809117
:100910007A00826080937A0080917A00816080936F
:100920007A0080917A00806880937A001092C100EA
:1009300062E082E00E940C0162E083E00E940C0110
:1009400062E084E00E940C0186EC91E0909301014A
:1009500080930001809169008C7F816080936900A1
:10096000E89A82E00E94080380E00E94A90380E1E7
:1009700091E00E94130260ED77E080E090E00E9439
:1009800062010E940003C0E0D0E084E00E94B50054
:10099000892BE9F4109251011092500110924C01F0
:1009A00010924D0110924E0110924F010E940003CF
:1009B00080E00E94A90380E291E00E94130264EFAC
:1009C00071E080E090E00E9462010E94000360916B
:1009D000500170915101072E000C880B990B0E9459
:1009E00094062EE137EA48E85EE30E9449076B016E
:1009F0007C0120E030E0A9010E945E0687FD36C040
:100A0000C0924C01D0924D01E0924E01F0924F0104
:100A100080E00E94A9038DE291E00E94130281E030
:100A20000E94A903C0904C01D0904D01E0904E016E
:100A3000F0904F01A7019601C701B6010E94B607C9
:100A40008823E9F087E391E00E94130283E491E0B8
:100A50000E94130264E670E080E090E00E94620170
:100A6000209709F492CF0E9400008FCF10924C0182
:100A700010924D0110924E0110924F01C9CF4601C4
:100A80005701E894B7F82FEF3FEF4FE75FE7C50155
:100A9000B4010E94B60781110DC02FEF3FEF4FE761
:100AA0005FE7C501B4010E945E0618161CF48BE3D3
:100AB00091E0CACF2FEF3FEF4FE75FE4C701B601E8
:100AC0000E94440718161CF48FE391E0BDCF2FEF6E
:100AD0003FEF4FE75FECC701B6010E945E0687FD5E
:100AE000F3CF20E030E0A901C701B6010E945E0605
:100AF00087FF0AC041E06DE28BE591E00E94A7020A
:100B0000F7FAF094F7F8F0942AE037ED43EA5BE364
:100B1000C701B6010E94F2054B015C010E94630609
:100B20006B017C010E9492069B01AC01C501B401DE
:100B30000E94F1054B015C014AE0C701B6010E9429
:100B4000200241E06EE28BE591E00E94A70220E0E6
:100B500030E040E251E4C501B4010E9449074B0175
:100B60005C010E9463066B01F12CE12C4AE0C70195
:100B7000B6010E942002C701B6010E9492069B01A5
:100B8000AC01C501B4010E94F10520E030E040E273
:100B900051E40E9449070E94630690E080E04AE029
:100BA0000E94200253CFEBE5F1E01382128288E02D
:100BB00091E09183808385E084838FEF858386E055
:100BC000868387E0878388E0808789E081878AE061
:100BD00082871386148615861686178681E00C9404
:100BE00008035058BB27AA270E9409060C940A073D
:100BF0000E94FC0638F00E94030720F039F49F3F62
:100C000019F426F40C94F9060EF4E095E7FB0C9425
:100C1000F306E92F0E941B0758F3BA176207730700
:100C20008407950720F079F4A6F50C943D070EF49F
:100C3000E0950B2EBA2FA02D0B01B90190010C01EC
:100C4000CA01A0011124FF27591B99F0593F50F404
:100C5000503E68F11A16F040A22F232F342F44275C
:100C6000585FF3CF469537952795A795F040539554
:100C7000C9F77EF41F16BA0B620B730B840BBAF024
:100C80009150A1F0FF0FBB1F661F771F881FC2F78F
:100C90000EC0BA0F621F731F841F48F487957795A3
:100CA0006795B795F7959E3F08F0B0CF9395880F5D
:100CB00008F09927EE0F9795879508950E94CF0623
:100CC00008F481E008950E94230788F09F5798F068
:100CD000B92F9927B751B0F0E1F0660F771F881F41
:100CE000991F1AF0BA95C9F714C0B13091F00E945B
:100CF0003D07B1E008950C943D07672F782F8827B2
:100D0000B85F39F0B93FCCF3869577956795B39581
:100D1000D9F73EF490958095709561957F4F8F4FF0
:100D20009F4F0895E89409C097FB3EF490958095F5
:100D3000709561957F4F8F4F9F4F9923A9F0F92FA1
:100D400096E9BB279395F695879577956795B7951F
:100D5000F111F8CFFAF4BB0F11F460FF1BC06F5F05
:100D60007F4F8F4F9F4F16C0882311F096E911C017
:100D7000772321F09EE8872F762F05C0662371F038
:100D800096E8862F70E060E02AF09A95660F771F4C
:100D9000881FDAF7880F9695879597F90895990F28
:100DA0000008550FAA0BE0E8FEEF16161706E80735
:100DB000F907C0F012161306E407F50798F0621B56
:100DC000730B840B950B39F40A2661F0232B242B2B
:100DD000252B21F408950A2609F4A140A6958FEF4A
:100DE000811D811D089597F99F6780E870E060E09C
:100DF00008959FEF80EC089500240A9416161706B4
:100E000018060906089500240A94121613061406FB
:100E100005060895092E0394000C11F4882352F05E
:100E2000BB0F40F4BF2B11F460FF04C06F5F7F4F16
:100E30008F4F9F4F089557FD9058440F551F59F0FD
:100E40005F3F71F04795880F97FB991F61F09F3FB7
:100E500079F087950895121613061406551FF2CFE0
:100E60004695F1DF08C0161617061806991FF1CF30
:100E700086957105610508940895E894BB27662757
:100E80007727CB0197F908950E94CF0608F48FEFDA
:100E900008950E945C070C940A070E94FC0638F033
:100EA0000E94030720F0952311F00C94F3060C9494
:100EB000F90611240C943E070E941B0770F3959FBE
:100EC000C1F3950F50E0551F629FF001729FBB2741
:100ED000F00DB11D639FAA27F00DB11DAA1F649FDD
:100EE0006627B00DA11D661F829F2227B00DA11D90
:100EF000621F739FB00DA11D621F839FA00D611D16
:100F0000221F749F3327A00D611D231F849F600D36
:100F1000211D822F762F6A2F11249F5750409AF05F
:100F2000F1F088234AF0EE0FFF1FBB1F661F771FEB
:100F3000881F91505040A9F79E3F510580F00C94B6
:100F4000F3060C943E075F3FE4F3983ED4F3869596
:100F500077956795B795F795E7959F5FC1F7FE2B56
:100F6000880F911D9695879597F908950E94CF0651
:100F7000880B990B0895A1E21A2EAA1BBB1BFD0139
:100F80000DC0AA1FBB1FEE1FFF1FA217B307E40768
:100F9000F50720F0A21BB30BE40BF50B661F771FC0
:100FA000881F991F1A9469F76095709580959095A0
:100FB0009B01AC01BD01CF010895EE0FFF1F05900D
:0A0FC000F491E02D0994F894FFCF9E
:100FCA009401940100000000B7039501C301C20116
:100FDA004D4541535552494E4720574845454C00C7
:100FEA00524553455454494E472E2E2E0044697398
:100FFA0074616E63653A006E616E00696E66006FB9
:08100A0076660020636D2000F2
:00000001FF
